{
  "_format": "hh-sol-artifact-1",
  "contractName": "CrossChainNFTs",
  "sourceName": "examples/evm/interchain-nft/CrossChainNFTs.sol",
  "abi": [
    {
      "inputs": [
        {
          "internalType": "address",
          "name": "gateway_",
          "type": "address"
        },
        {
          "internalType": "address",
          "name": "gasReceiver_",
          "type": "address"
        }
      ],
      "stateMutability": "nonpayable",
      "type": "constructor"
    },
    {
      "inputs": [],
      "name": "InvalidAddress",
      "type": "error"
    },
    {
      "inputs": [],
      "name": "NotApprovedByGateway",
      "type": "error"
    },
    {
      "anonymous": false,
      "inputs": [
        {
          "indexed": true,
          "internalType": "address",
          "name": "owner",
          "type": "address"
        },
        {
          "indexed": true,
          "internalType": "address",
          "name": "approved",
          "type": "address"
        },
        {
          "indexed": true,
          "internalType": "uint256",
          "name": "tokenId",
          "type": "uint256"
        }
      ],
      "name": "Approval",
      "type": "event"
    },
    {
      "anonymous": false,
      "inputs": [
        {
          "indexed": true,
          "internalType": "address",
          "name": "owner",
          "type": "address"
        },
        {
          "indexed": true,
          "internalType": "address",
          "name": "operator",
          "type": "address"
        },
        {
          "indexed": false,
          "internalType": "bool",
          "name": "approved",
          "type": "bool"
        }
      ],
      "name": "ApprovalForAll",
      "type": "event"
    },
    {
      "anonymous": false,
      "inputs": [
        {
          "indexed": false,
          "internalType": "uint256",
          "name": "_fromTokenId",
          "type": "uint256"
        },
        {
          "indexed": false,
          "internalType": "uint256",
          "name": "_toTokenId",
          "type": "uint256"
        }
      ],
      "name": "BatchMetadataUpdate",
      "type": "event"
    },
    {
      "anonymous": false,
      "inputs": [
        {
          "indexed": false,
          "internalType": "uint256",
          "name": "_tokenId",
          "type": "uint256"
        }
      ],
      "name": "MetadataUpdate",
      "type": "event"
    },
    {
      "anonymous": false,
      "inputs": [
        {
          "indexed": true,
          "internalType": "address",
          "name": "previousOwner",
          "type": "address"
        },
        {
          "indexed": true,
          "internalType": "address",
          "name": "newOwner",
          "type": "address"
        }
      ],
      "name": "OwnershipTransferred",
      "type": "event"
    },
    {
      "anonymous": false,
      "inputs": [
        {
          "indexed": true,
          "internalType": "address",
          "name": "from",
          "type": "address"
        },
        {
          "indexed": true,
          "internalType": "address",
          "name": "to",
          "type": "address"
        },
        {
          "indexed": true,
          "internalType": "uint256",
          "name": "tokenId",
          "type": "uint256"
        }
      ],
      "name": "Transfer",
      "type": "event"
    },
    {
      "inputs": [
        {
          "internalType": "address",
          "name": "to",
          "type": "address"
        },
        {
          "internalType": "uint256",
          "name": "tokenId",
          "type": "uint256"
        }
      ],
      "name": "approve",
      "outputs": [],
      "stateMutability": "nonpayable",
      "type": "function"
    },
    {
      "inputs": [
        {
          "internalType": "address",
          "name": "owner",
          "type": "address"
        }
      ],
      "name": "balanceOf",
      "outputs": [
        {
          "internalType": "uint256",
          "name": "",
          "type": "uint256"
        }
      ],
      "stateMutability": "view",
      "type": "function"
    },
    {
      "inputs": [
        {
          "internalType": "string",
          "name": "destinationChain",
          "type": "string"
        },
        {
          "internalType": "string",
          "name": "destinationAddress",
          "type": "string"
        }
      ],
      "name": "connectNFTs",
      "outputs": [],
      "stateMutability": "payable",
      "type": "function"
    },
    {
      "inputs": [
        {
          "internalType": "bytes32",
          "name": "commandId",
          "type": "bytes32"
        },
        {
          "internalType": "string",
          "name": "sourceChain",
          "type": "string"
        },
        {
          "internalType": "string",
          "name": "sourceAddress",
          "type": "string"
        },
        {
          "internalType": "bytes",
          "name": "payload",
          "type": "bytes"
        }
      ],
      "name": "execute",
      "outputs": [],
      "stateMutability": "nonpayable",
      "type": "function"
    },
    {
      "inputs": [
        {
          "internalType": "bytes32",
          "name": "commandId",
          "type": "bytes32"
        },
        {
          "internalType": "string",
          "name": "sourceChain",
          "type": "string"
        },
        {
          "internalType": "string",
          "name": "sourceAddress",
          "type": "string"
        },
        {
          "internalType": "bytes",
          "name": "payload",
          "type": "bytes"
        },
        {
          "internalType": "string",
          "name": "tokenSymbol",
          "type": "string"
        },
        {
          "internalType": "uint256",
          "name": "amount",
          "type": "uint256"
        }
      ],
      "name": "executeWithToken",
      "outputs": [],
      "stateMutability": "nonpayable",
      "type": "function"
    },
    {
      "inputs": [],
      "name": "gasService",
      "outputs": [
        {
          "internalType": "contract IAxelarGasService",
          "name": "",
          "type": "address"
        }
      ],
      "stateMutability": "view",
      "type": "function"
    },
    {
      "inputs": [],
      "name": "gateway",
      "outputs": [
        {
          "internalType": "contract IAxelarGateway",
          "name": "",
          "type": "address"
        }
      ],
      "stateMutability": "view",
      "type": "function"
    },
    {
      "inputs": [
        {
          "internalType": "uint256",
          "name": "tokenId",
          "type": "uint256"
        }
      ],
      "name": "getApproved",
      "outputs": [
        {
          "internalType": "address",
          "name": "",
          "type": "address"
        }
      ],
      "stateMutability": "view",
      "type": "function"
    },
    {
      "inputs": [
        {
          "internalType": "address",
          "name": "owner",
          "type": "address"
        },
        {
          "internalType": "address",
          "name": "operator",
          "type": "address"
        }
      ],
      "name": "isApprovedForAll",
      "outputs": [
        {
          "internalType": "bool",
          "name": "",
          "type": "bool"
        }
      ],
      "stateMutability": "view",
      "type": "function"
    },
    {
      "inputs": [],
      "name": "name",
      "outputs": [
        {
          "internalType": "string",
          "name": "",
          "type": "string"
        }
      ],
      "stateMutability": "view",
      "type": "function"
    },
    {
      "inputs": [],
      "name": "owner",
      "outputs": [
        {
          "internalType": "address",
          "name": "",
          "type": "address"
        }
      ],
      "stateMutability": "view",
      "type": "function"
    },
    {
      "inputs": [
        {
          "internalType": "uint256",
          "name": "tokenId",
          "type": "uint256"
        }
      ],
      "name": "ownerOf",
      "outputs": [
        {
          "internalType": "address",
          "name": "",
          "type": "address"
        }
      ],
      "stateMutability": "view",
      "type": "function"
    },
    {
      "inputs": [],
      "name": "remoteAddress",
      "outputs": [
        {
          "internalType": "string",
          "name": "",
          "type": "string"
        }
      ],
      "stateMutability": "view",
      "type": "function"
    },
    {
      "inputs": [],
      "name": "remoteChain",
      "outputs": [
        {
          "internalType": "string",
          "name": "",
          "type": "string"
        }
      ],
      "stateMutability": "view",
      "type": "function"
    },
    {
      "inputs": [],
      "name": "renounceOwnership",
      "outputs": [],
      "stateMutability": "nonpayable",
      "type": "function"
    },
    {
      "inputs": [
        {
          "internalType": "address",
          "name": "to",
          "type": "address"
        },
        {
          "internalType": "string",
          "name": "uri",
          "type": "string"
        }
      ],
      "name": "safeMint",
      "outputs": [],
      "stateMutability": "nonpayable",
      "type": "function"
    },
    {
      "inputs": [
        {
          "internalType": "string",
          "name": "destinationChain",
          "type": "string"
        },
        {
          "internalType": "string",
          "name": "destinationAddress",
          "type": "string"
        },
        {
          "internalType": "address",
          "name": "to",
          "type": "address"
        },
        {
          "internalType": "string",
          "name": "uri",
          "type": "string"
        }
      ],
      "name": "safeMintFromOtherChain",
      "outputs": [],
      "stateMutability": "payable",
      "type": "function"
    },
    {
      "inputs": [
        {
          "internalType": "address",
          "name": "from",
          "type": "address"
        },
        {
          "internalType": "address",
          "name": "to",
          "type": "address"
        },
        {
          "internalType": "uint256",
          "name": "tokenId",
          "type": "uint256"
        }
      ],
      "name": "safeTransferFrom",
      "outputs": [],
      "stateMutability": "nonpayable",
      "type": "function"
    },
    {
      "inputs": [
        {
          "internalType": "address",
          "name": "from",
          "type": "address"
        },
        {
          "internalType": "address",
          "name": "to",
          "type": "address"
        },
        {
          "internalType": "uint256",
          "name": "tokenId",
          "type": "uint256"
        },
        {
          "internalType": "bytes",
          "name": "data",
          "type": "bytes"
        }
      ],
      "name": "safeTransferFrom",
      "outputs": [],
      "stateMutability": "nonpayable",
      "type": "function"
    },
    {
      "inputs": [
        {
          "internalType": "address",
          "name": "operator",
          "type": "address"
        },
        {
          "internalType": "bool",
          "name": "approved",
          "type": "bool"
        }
      ],
      "name": "setApprovalForAll",
      "outputs": [],
      "stateMutability": "nonpayable",
      "type": "function"
    },
    {
      "inputs": [
        {
          "internalType": "bytes4",
          "name": "interfaceId",
          "type": "bytes4"
        }
      ],
      "name": "supportsInterface",
      "outputs": [
        {
          "internalType": "bool",
          "name": "",
          "type": "bool"
        }
      ],
      "stateMutability": "view",
      "type": "function"
    },
    {
      "inputs": [],
      "name": "symbol",
      "outputs": [
        {
          "internalType": "string",
          "name": "",
          "type": "string"
        }
      ],
      "stateMutability": "view",
      "type": "function"
    },
    {
      "inputs": [
        {
          "internalType": "uint256",
          "name": "tokenId",
          "type": "uint256"
        }
      ],
      "name": "tokenURI",
      "outputs": [
        {
          "internalType": "string",
          "name": "",
          "type": "string"
        }
      ],
      "stateMutability": "view",
      "type": "function"
    },
    {
      "inputs": [],
      "name": "totalSupply",
      "outputs": [
        {
          "internalType": "uint256",
          "name": "",
          "type": "uint256"
        }
      ],
      "stateMutability": "view",
      "type": "function"
    },
    {
      "inputs": [
        {
          "internalType": "address",
          "name": "from",
          "type": "address"
        },
        {
          "internalType": "address",
          "name": "to",
          "type": "address"
        },
        {
          "internalType": "uint256",
          "name": "tokenId",
          "type": "uint256"
        }
      ],
      "name": "transferFrom",
      "outputs": [],
      "stateMutability": "nonpayable",
      "type": "function"
    },
    {
      "inputs": [
        {
          "internalType": "address",
          "name": "newOwner",
          "type": "address"
        }
      ],
      "name": "transferOwnership",
      "outputs": [],
      "stateMutability": "nonpayable",
      "type": "function"
    },
    {
      "inputs": [
        {
          "internalType": "string",
          "name": "newURI",
          "type": "string"
        },
        {
          "internalType": "uint256",
          "name": "token",
          "type": "uint256"
        }
      ],
      "name": "update",
      "outputs": [],
      "stateMutability": "payable",
      "type": "function"
    },
    {
      "inputs": [],
      "name": "value",
      "outputs": [
        {
          "internalType": "string",
          "name": "",
          "type": "string"
        }
      ],
      "stateMutability": "view",
      "type": "function"
    }
  ],
  "bytecode": "0x60c06040523480156200001157600080fd5b5060405162002cf538038062002cf583398101604081905262000034916200022f565b6040518060400160405280601081526020016f43726f7373436861696e43616e76617360801b8152506040518060400160405280600381526020016243434360e81b8152508360006001600160a01b0316816001600160a01b03161415620000af5760405163e6c4247b60e01b815260040160405180910390fd5b6001600160a01b03166080528151620000d09060009060208501906200016c565b508051620000e69060019060208401906200016c565b50505062000103620000fd6200011660201b60201c565b6200011a565b6001600160a01b031660a05250620002a4565b3390565b600780546001600160a01b038381166001600160a01b0319831681179093556040519116919082907f8be0079c531659141344cd1fd0a4f28419497f9722a3daafe3b4186f6b6457e090600090a35050565b8280546200017a9062000267565b90600052602060002090601f0160209004810192826200019e5760008555620001e9565b82601f10620001b957805160ff1916838001178555620001e9565b82800160010185558215620001e9579182015b82811115620001e9578251825591602001919060010190620001cc565b50620001f7929150620001fb565b5090565b5b80821115620001f75760008155600101620001fc565b80516001600160a01b03811681146200022a57600080fd5b919050565b600080604083850312156200024357600080fd5b6200024e8362000212565b91506200025e6020840162000212565b90509250929050565b600181811c908216806200027c57607f821691505b602082108114156200029e57634e487b7160e01b600052602260045260246000fd5b50919050565b60805160a051612a0f620002e6600039600081816103b301526113e20152600081816102940152818161084a015281816109f401526114860152612a0f6000f3fe6080604052600436106101b75760003560e01c80636a22d8cc116100ec578063a22cb4651161008a578063c87b56dd11610064578063c87b56dd146104b8578063d204c45e146104d8578063e985e9c5146104f8578063f2fde38b1461054157600080fd5b8063a22cb46514610465578063b88d4fde14610485578063bc7e37eb146104a557600080fd5b80638da5cb5b116100c65780638da5cb5b1461040a578063914e6c0b1461042857806395d89b411461043b5780639c5ee4621461045057600080fd5b80636a22d8cc146103a157806370a08231146103d5578063715018a6146103f557600080fd5b80631a98b2e01161015957806342842e0e1161013357806342842e0e1461032e578063491606581461034e5780634ee5c2ee1461036e5780636352211e1461038157600080fd5b80631a98b2e0146102d957806323b872dd146102f95780633fa4f2451461031957600080fd5b8063081812fc11610195578063081812fc14610228578063095ea7b314610260578063116191b61461028257806318160ddd146102b657600080fd5b806301ffc9a7146101bc57806306216fa0146101f157806306fdde0314610213575b600080fd5b3480156101c857600080fd5b506101dc6101d7366004611f44565b610561565b60405190151581526020015b60405180910390f35b3480156101fd57600080fd5b50610206610572565b6040516101e89190611fb9565b34801561021f57600080fd5b50610206610600565b34801561023457600080fd5b50610248610243366004611fcc565b610692565b6040516001600160a01b0390911681526020016101e8565b34801561026c57600080fd5b5061028061027b366004611ffa565b6106b9565b005b34801561028e57600080fd5b506102487f000000000000000000000000000000000000000000000000000000000000000081565b3480156102c257600080fd5b506102cb6107f0565b6040519081526020016101e8565b3480156102e557600080fd5b506102806102f436600461206f565b610800565b34801561030557600080fd5b50610280610314366004612149565b61090b565b34801561032557600080fd5b50610206610982565b34801561033a57600080fd5b50610280610349366004612149565b61098f565b34801561035a57600080fd5b5061028061036936600461218a565b6109aa565b61028061037c36600461222e565b610aba565b34801561038d57600080fd5b5061024861039c366004611fcc565b610b6b565b3480156103ad57600080fd5b506102487f000000000000000000000000000000000000000000000000000000000000000081565b3480156103e157600080fd5b506102cb6103f036600461227a565b610bd0565b34801561040157600080fd5b50610280610c6a565b34801561041657600080fd5b506007546001600160a01b0316610248565b610280610436366004612297565b610c7e565b34801561044757600080fd5b50610206610cc8565b34801561045c57600080fd5b50610206610cd7565b34801561047157600080fd5b50610280610480366004612311565b610ce4565b34801561049157600080fd5b506102806104a03660046123d6565b610cf3565b6102806104b3366004612476565b610d6b565b3480156104c457600080fd5b506102066104d3366004611fcc565b610dc0565b3480156104e457600080fd5b506102806104f336600461251d565b610dcb565b34801561050457600080fd5b506101dc61051336600461256d565b6001600160a01b03918216600090815260056020908152604080832093909416825291909152205460ff1690565b34801561054d57600080fd5b5061028061055c36600461227a565b610dfa565b600061056c82610e8a565b92915050565b6009805461057f9061259b565b80601f01602080910402602001604051908101604052809291908181526020018280546105ab9061259b565b80156105f85780601f106105cd576101008083540402835291602001916105f8565b820191906000526020600020905b8154815290600101906020018083116105db57829003601f168201915b505050505081565b60606000805461060f9061259b565b80601f016020809104026020016040519081016040528092919081815260200182805461063b9061259b565b80156106885780601f1061065d57610100808354040283529160200191610688565b820191906000526020600020905b81548152906001019060200180831161066b57829003601f168201915b5050505050905090565b600061069d82610ec8565b506000908152600460205260409020546001600160a01b031690565b60006106c482610b6b565b9050806001600160a01b0316836001600160a01b031614156107535760405162461bcd60e51b815260206004820152602160248201527f4552433732313a20617070726f76616c20746f2063757272656e74206f776e6560448201527f720000000000000000000000000000000000000000000000000000000000000060648201526084015b60405180910390fd5b336001600160a01b038216148061076f575061076f8133610513565b6107e15760405162461bcd60e51b815260206004820152603d60248201527f4552433732313a20617070726f76652063616c6c6572206973206e6f7420746f60448201527f6b656e206f776e6572206f7220617070726f76656420666f7220616c6c000000606482015260840161074a565b6107eb8383610f2c565b505050565b60006107fb600b5490565b905090565b600085856040516108129291906125d6565b6040519081900381207f1876eed900000000000000000000000000000000000000000000000000000000825291506001600160a01b037f00000000000000000000000000000000000000000000000000000000000000001690631876eed99061088f908e908e908e908e908e9089908d908d908d9060040161260f565b602060405180830381600087803b1580156108a957600080fd5b505af11580156108bd573d6000803e3d6000fd5b505050506040513d601f19601f820116820180604052508101906108e1919061266e565b6108fe57604051631403112d60e21b815260040160405180910390fd5b5050505050505050505050565b6109153382610fb2565b6109775760405162461bcd60e51b815260206004820152602d60248201527f4552433732313a2063616c6c6572206973206e6f7420746f6b656e206f776e6560448201526c1c881bdc88185c1c1c9bdd9959609a1b606482015260840161074a565b6107eb838383611031565b6008805461057f9061259b565b6107eb83838360405180602001604052806000815250610cf3565b600082826040516109bc9291906125d6565b6040519081900381207f5f6970c300000000000000000000000000000000000000000000000000000000825291506001600160a01b037f00000000000000000000000000000000000000000000000000000000000000001690635f6970c390610a33908b908b908b908b908b90899060040161268b565b602060405180830381600087803b158015610a4d57600080fd5b505af1158015610a61573d6000803e3d6000fd5b505050506040513d601f19601f82011682018060405250810190610a85919061266e565b610aa257604051631403112d60e21b815260040160405180910390fd5b610ab0878787878787611237565b5050505050505050565b610afa8184848080601f0160208091040260200160405190810160405280939291908181526020018383808284376000920191909152506112cb92505050565b600060098054610b099061259b565b9050111580610b2757506000600a8054610b229061259b565b905011155b15610b3157505050565b60006002848484604051602001610b4b94939291906126cc565b6040516020818303038152906040529050610b65816113ac565b50505050565b6000818152600260205260408120546001600160a01b03168061056c5760405162461bcd60e51b815260206004820152601860248201527f4552433732313a20696e76616c696420746f6b656e2049440000000000000000604482015260640161074a565b60006001600160a01b038216610c4e5760405162461bcd60e51b815260206004820152602960248201527f4552433732313a2061646472657373207a65726f206973206e6f74206120766160448201527f6c6964206f776e65720000000000000000000000000000000000000000000000606482015260840161074a565b506001600160a01b031660009081526003602052604090205490565b610c726114ef565b610c7c6000611549565b565b610c8a60098585611e21565b50610c97600a8383611e21565b506040805160016020820152600091016040516020818303038152906040529050610cc1816113ac565b5050505050565b60606001805461060f9061259b565b600a805461057f9061259b565b610cef3383836115a8565b5050565b610cfd3383610fb2565b610d5f5760405162461bcd60e51b815260206004820152602d60248201527f4552433732313a2063616c6c6572206973206e6f7420746f6b656e206f776e6560448201526c1c881bdc88185c1c1c9bdd9959609a1b606482015260840161074a565b610b6584848484611677565b610d7760098787611e21565b50610d84600a8585611e21565b50600060038284604051602001610d9d939291906126fa565b6040516020818303038152906040529050610db7816113ac565b50505050505050565b606061056c826116f5565b6000610dd6600b5490565b9050610de6600b80546001019055565b610df083826117fe565b6107eb81836112cb565b610e026114ef565b6001600160a01b038116610e7e5760405162461bcd60e51b815260206004820152602660248201527f4f776e61626c653a206e6577206f776e657220697320746865207a65726f206160448201527f6464726573730000000000000000000000000000000000000000000000000000606482015260840161074a565b610e8781611549565b50565b60006001600160e01b031982167f4906490600000000000000000000000000000000000000000000000000000000148061056c575061056c82611818565b6000818152600260205260409020546001600160a01b0316610e875760405162461bcd60e51b815260206004820152601860248201527f4552433732313a20696e76616c696420746f6b656e2049440000000000000000604482015260640161074a565b6000818152600460205260409020805473ffffffffffffffffffffffffffffffffffffffff19166001600160a01b0384169081179091558190610f6e82610b6b565b6001600160a01b03167f8c5be1e5ebec7d5bd14f71427d1e84f3dd0314c0f7b2291e5b200ac8c7c3b92560405160405180910390a45050565b505050505050505050565b600080610fbe83610b6b565b9050806001600160a01b0316846001600160a01b0316148061100557506001600160a01b0380821660009081526005602090815260408083209388168352929052205460ff165b806110295750836001600160a01b031661101e84610692565b6001600160a01b0316145b949350505050565b826001600160a01b031661104482610b6b565b6001600160a01b0316146110a85760405162461bcd60e51b815260206004820152602560248201527f4552433732313a207472616e736665722066726f6d20696e636f72726563742060448201526437bbb732b960d91b606482015260840161074a565b6001600160a01b0382166111235760405162461bcd60e51b8152602060048201526024808201527f4552433732313a207472616e7366657220746f20746865207a65726f2061646460448201527f7265737300000000000000000000000000000000000000000000000000000000606482015260840161074a565b826001600160a01b031661113682610b6b565b6001600160a01b03161461119a5760405162461bcd60e51b815260206004820152602560248201527f4552433732313a207472616e736665722066726f6d20696e636f72726563742060448201526437bbb732b960d91b606482015260840161074a565b6000818152600460209081526040808320805473ffffffffffffffffffffffffffffffffffffffff199081169091556001600160a01b0387811680865260038552838620805460001901905590871680865283862080546001019055868652600290945282852080549092168417909155905184937fddf252ad1be2c89b69c2b068fc378daa952ba7f163c4a11628f55a4df523b3ef91a4505050565b600061124582840184612745565b60ff16905080600114156112725761125f60098888611e21565b5061126c600a8686611e21565b50610db7565b80600214156112a2576000606061128b84860186612760565b9350915061129b905082826112cb565b5050610db7565b8060031415610db757600060606112bb848601866127b7565b93509150610fa790508282610dcb565b6000828152600260205260409020546001600160a01b03166113555760405162461bcd60e51b815260206004820152602e60248201527f45524337323155524953746f726167653a2055524920736574206f66206e6f6e60448201527f6578697374656e7420746f6b656e000000000000000000000000000000000000606482015260840161074a565b6000828152600660209081526040909120825161137492840190611ea5565b506040518281527ff8e1a15aba9398e019f0b49df1a4fde98ee17ae345cb5f6b5e2c27f5033e8ce79060200160405180910390a15050565b3415611456576040517f0c93e3bb0000000000000000000000000000000000000000000000000000000081526001600160a01b037f00000000000000000000000000000000000000000000000000000000000000001690630c93e3bb903490611423903090600990600a90889033906004016128b9565b6000604051808303818588803b15801561143c57600080fd5b505af1158015611450573d6000803e3d6000fd5b50505050505b6040517f1c92115f0000000000000000000000000000000000000000000000000000000081526001600160a01b037f00000000000000000000000000000000000000000000000000000000000000001690631c92115f906114c190600990600a908690600401612918565b600060405180830381600087803b1580156114db57600080fd5b505af1158015610cc1573d6000803e3d6000fd5b6007546001600160a01b03163314610c7c5760405162461bcd60e51b815260206004820181905260248201527f4f776e61626c653a2063616c6c6572206973206e6f7420746865206f776e6572604482015260640161074a565b600780546001600160a01b0383811673ffffffffffffffffffffffffffffffffffffffff19831681179093556040519116919082907f8be0079c531659141344cd1fd0a4f28419497f9722a3daafe3b4186f6b6457e090600090a35050565b816001600160a01b0316836001600160a01b0316141561160a5760405162461bcd60e51b815260206004820152601960248201527f4552433732313a20617070726f766520746f2063616c6c657200000000000000604482015260640161074a565b6001600160a01b03838116600081815260056020908152604080832094871680845294825291829020805460ff191686151590811790915591519182527f17307eab39ab6107e8899845ad3d59bd9653f200f220920489ca2b5937696c31910160405180910390a3505050565b611682848484611031565b61168e848484846118b3565b610b655760405162461bcd60e51b815260206004820152603260248201527f4552433732313a207472616e7366657220746f206e6f6e20455243373231526560448201527131b2b4bb32b91034b6b83632b6b2b73a32b960711b606482015260840161074a565b606061170082610ec8565b600082815260066020526040812080546117199061259b565b80601f01602080910402602001604051908101604052809291908181526020018280546117459061259b565b80156117925780601f1061176757610100808354040283529160200191611792565b820191906000526020600020905b81548152906001019060200180831161177557829003601f168201915b5050505050905060006117b060408051602081019091526000815290565b90508051600014156117c3575092915050565b8151156117f55780826040516020016117dd92919061295b565b60405160208183030381529060405292505050919050565b61102984611a0b565b610cef828260405180602001604052806000815250611a7f565b60006001600160e01b031982167f80ac58cd00000000000000000000000000000000000000000000000000000000148061187b57506001600160e01b031982167f5b5e139f00000000000000000000000000000000000000000000000000000000145b8061056c57507f01ffc9a7000000000000000000000000000000000000000000000000000000006001600160e01b031983161461056c565b60006001600160a01b0384163b15611a0057604051630a85bd0160e11b81526001600160a01b0385169063150b7a02906118f790339089908890889060040161298a565b602060405180830381600087803b15801561191157600080fd5b505af1925050508015611941575060408051601f3d908101601f1916820190925261193e918101906129bc565b60015b6119e6573d80801561196f576040519150601f19603f3d011682016040523d82523d6000602084013e611974565b606091505b5080516119de5760405162461bcd60e51b815260206004820152603260248201527f4552433732313a207472616e7366657220746f206e6f6e20455243373231526560448201527131b2b4bb32b91034b6b83632b6b2b73a32b960711b606482015260840161074a565b805181602001fd5b6001600160e01b031916630a85bd0160e11b149050611029565b506001949350505050565b6060611a1682610ec8565b6000611a2d60408051602081019091526000815290565b90506000815111611a4d5760405180602001604052806000815250611a78565b80611a5784611afd565b604051602001611a6892919061295b565b6040516020818303038152906040525b9392505050565b611a898383611ba7565b611a9660008484846118b3565b6107eb5760405162461bcd60e51b815260206004820152603260248201527f4552433732313a207472616e7366657220746f206e6f6e20455243373231526560448201527131b2b4bb32b91034b6b83632b6b2b73a32b960711b606482015260840161074a565b60606000611b0a83611d3f565b600101905060008167ffffffffffffffff811115611b2a57611b2a61234a565b6040519080825280601f01601f191660200182016040528015611b54576020820181803683370190505b5090508181016020015b600019017f3031323334353637383961626364656600000000000000000000000000000000600a86061a8153600a8504945084611b9a57611b9f565b611b5e565b509392505050565b6001600160a01b038216611bfd5760405162461bcd60e51b815260206004820181905260248201527f4552433732313a206d696e7420746f20746865207a65726f2061646472657373604482015260640161074a565b6000818152600260205260409020546001600160a01b031615611c625760405162461bcd60e51b815260206004820152601c60248201527f4552433732313a20746f6b656e20616c7265616479206d696e74656400000000604482015260640161074a565b6000818152600260205260409020546001600160a01b031615611cc75760405162461bcd60e51b815260206004820152601c60248201527f4552433732313a20746f6b656e20616c7265616479206d696e74656400000000604482015260640161074a565b6001600160a01b0382166000818152600360209081526040808320805460010190558483526002909152808220805473ffffffffffffffffffffffffffffffffffffffff19168417905551839291907fddf252ad1be2c89b69c2b068fc378daa952ba7f163c4a11628f55a4df523b3ef908290a45050565b6000807a184f03e93ff9f4daa797ed6e38ed64bf6a1f0100000000000000008310611d88577a184f03e93ff9f4daa797ed6e38ed64bf6a1f010000000000000000830492506040015b6d04ee2d6d415b85acef81000000008310611db4576d04ee2d6d415b85acef8100000000830492506020015b662386f26fc100008310611dd257662386f26fc10000830492506010015b6305f5e1008310611dea576305f5e100830492506008015b6127108310611dfe57612710830492506004015b60648310611e10576064830492506002015b600a831061056c5760010192915050565b828054611e2d9061259b565b90600052602060002090601f016020900481019282611e4f5760008555611e95565b82601f10611e685782800160ff19823516178555611e95565b82800160010185558215611e95579182015b82811115611e95578235825591602001919060010190611e7a565b50611ea1929150611f19565b5090565b828054611eb19061259b565b90600052602060002090601f016020900481019282611ed35760008555611e95565b82601f10611eec57805160ff1916838001178555611e95565b82800160010185558215611e95579182015b82811115611e95578251825591602001919060010190611efe565b5b80821115611ea15760008155600101611f1a565b6001600160e01b031981168114610e8757600080fd5b600060208284031215611f5657600080fd5b8135611a7881611f2e565b60005b83811015611f7c578181015183820152602001611f64565b83811115610b655750506000910152565b60008151808452611fa5816020860160208601611f61565b601f01601f19169290920160200192915050565b602081526000611a786020830184611f8d565b600060208284031215611fde57600080fd5b5035919050565b6001600160a01b0381168114610e8757600080fd5b6000806040838503121561200d57600080fd5b823561201881611fe5565b946020939093013593505050565b60008083601f84011261203857600080fd5b50813567ffffffffffffffff81111561205057600080fd5b60208301915083602082850101111561206857600080fd5b9250929050565b60008060008060008060008060008060c08b8d03121561208e57600080fd5b8a35995060208b013567ffffffffffffffff808211156120ad57600080fd5b6120b98e838f01612026565b909b50995060408d01359150808211156120d257600080fd5b6120de8e838f01612026565b909950975060608d01359150808211156120f757600080fd5b6121038e838f01612026565b909750955060808d013591508082111561211c57600080fd5b506121298d828e01612026565b9150809450508092505060a08b013590509295989b9194979a5092959850565b60008060006060848603121561215e57600080fd5b833561216981611fe5565b9250602084013561217981611fe5565b929592945050506040919091013590565b60008060008060008060006080888a0312156121a557600080fd5b87359650602088013567ffffffffffffffff808211156121c457600080fd5b6121d08b838c01612026565b909850965060408a01359150808211156121e957600080fd5b6121f58b838c01612026565b909650945060608a013591508082111561220e57600080fd5b5061221b8a828b01612026565b989b979a50959850939692959293505050565b60008060006040848603121561224357600080fd5b833567ffffffffffffffff81111561225a57600080fd5b61226686828701612026565b909790965060209590950135949350505050565b60006020828403121561228c57600080fd5b8135611a7881611fe5565b600080600080604085870312156122ad57600080fd5b843567ffffffffffffffff808211156122c557600080fd5b6122d188838901612026565b909650945060208701359150808211156122ea57600080fd5b506122f787828801612026565b95989497509550505050565b8015158114610e8757600080fd5b6000806040838503121561232457600080fd5b823561232f81611fe5565b9150602083013561233f81612303565b809150509250929050565b634e487b7160e01b600052604160045260246000fd5b600067ffffffffffffffff8084111561237b5761237b61234a565b604051601f8501601f19908116603f011681019082821181831017156123a3576123a361234a565b816040528093508581528686860111156123bc57600080fd5b858560208301376000602087830101525050509392505050565b600080600080608085870312156123ec57600080fd5b84356123f781611fe5565b9350602085013561240781611fe5565b925060408501359150606085013567ffffffffffffffff81111561242a57600080fd5b8501601f8101871361243b57600080fd5b61244a87823560208401612360565b91505092959194509250565b600082601f83011261246757600080fd5b611a7883833560208501612360565b6000806000806000806080878903121561248f57600080fd5b863567ffffffffffffffff808211156124a757600080fd5b6124b38a838b01612026565b909850965060208901359150808211156124cc57600080fd5b6124d88a838b01612026565b9096509450604089013591506124ed82611fe5565b9092506060880135908082111561250357600080fd5b5061251089828a01612456565b9150509295509295509295565b6000806040838503121561253057600080fd5b823561253b81611fe5565b9150602083013567ffffffffffffffff81111561255757600080fd5b61256385828601612456565b9150509250929050565b6000806040838503121561258057600080fd5b823561258b81611fe5565b9150602083013561233f81611fe5565b600181811c908216806125af57607f821691505b602082108114156125d057634e487b7160e01b600052602260045260246000fd5b50919050565b8183823760009101908152919050565b81835281816020850137506000828201602090810191909152601f909101601f19169091010190565b89815260c06020820152600061262960c083018a8c6125e6565b828103604084015261263c81898b6125e6565b905086606084015282810360808401526126578186886125e6565b9150508260a08301529a9950505050505050505050565b60006020828403121561268057600080fd5b8151611a7881612303565b8681526080602082015260006126a56080830187896125e6565b82810360408401526126b88186886125e6565b915050826060830152979650505050505050565b60ff851681526060602082015260006126e96060830185876125e6565b905082604083015295945050505050565b60ff841681526060602082015260006127166060830185611f8d565b90506001600160a01b0383166040830152949350505050565b803560ff8116811461274057600080fd5b919050565b60006020828403121561275757600080fd5b611a788261272f565b60008060006060848603121561277557600080fd5b61277e8461272f565b9250602084013567ffffffffffffffff81111561279a57600080fd5b6127a686828701612456565b925050604084013590509250925092565b6000806000606084860312156127cc57600080fd5b6127d58461272f565b9250602084013567ffffffffffffffff8111156127f157600080fd5b6127fd86828701612456565b925050604084013561280e81611fe5565b809150509250925092565b8054600090600181811c908083168061283357607f831692505b602080841082141561285557634e487b7160e01b600052602260045260246000fd5b838852602088018280156128705760018114612881576128ac565b60ff198716825282820197506128ac565b60008981526020902060005b878110156128a65781548482015290860190840161288d565b83019850505b5050505050505092915050565b60006001600160a01b03808816835260a060208401526128dc60a0840188612819565b83810360408501526128ee8188612819565b905083810360608501526129028187611f8d565b9250508084166080840152509695505050505050565b60608152600061292b6060830186612819565b828103602084015261293d8186612819565b905082810360408401526129518185611f8d565b9695505050505050565b6000835161296d818460208801611f61565b835190830190612981818360208801611f61565b01949350505050565b60006001600160a01b038087168352808616602084015250836040830152608060608301526129516080830184611f8d565b6000602082840312156129ce57600080fd5b8151611a7881611f2e56fea26469706673582212206b952e3ad29d2a989950629f6b2fb1a9e026356b4405a020f554a54b5a28561a64736f6c63430008090033",
  "linkReferences": {},
  "deployedLinkReferences": {}
}